:10035300021B00000208000002190000040AFEFE4E
:10036300FEFE011600041FF7FBFDFE02140000024F
:100373001D0000010E00011300011800021100000E
:0A038300020F000001230001170122
:0F041E005389F0438902758A06758C06D28C22A9
:0B043A00D2AFD2A9D2ADD2B9C2BD2210
:10002E00E51614600B14600C2402700C7F01800A1C
:10003E007F0280067F0480027F087E80E4FDEF5EF3
:10004E006004D2908002C290C291D291C291EEC34E
:10005E0013FE53067F0DBD08E5740A2516F8E6FF5C
:10006E008516240516E516C394044003E4F5167EA2
:10007E0080E4FDEF5E6004D2908002C290C291D205
:10008E0091C291EEC313FE0DBD08E8C292D292C288
:10009E00927F107E80E4FDEF5E6004D2908002C2FB
:1000AE0090C291D291C291EEC313FE53067F0DBD45
:1000BE0008E5E51714600B14600C2402700C7FF732
:1000CE00800A7FFB80067FFD80027F0E7E80E4FD2E
:1000DE00EF5E6004D2908002C290C291D291C29122
:0E00EE00EEC313FE0DBD08E8C292D292C2927C
:0100FC0022E1
:03000B0002029B53
:10029B00C0E0C0F0C083C082C0D075D000C000C029
:1002AB0001C002C003C004C005C006C007C2AF0531
:1002BB001EE51E7002051D120000E51E6414451D8F
:1002CB00701412002E1203F20515E51570020514B9
:1002DB00751D00751E00D2AFD007D006D005D00417
:1002EB00D003D002D001D000D0D0D082D083D0F0B8
:0302FB00D0E0321E
:1002FE00EFB40900504690030BF82828730203262A
:10030E0002032A02032E02033202033602033A02CA
:10031E00033E0203420203467E1180227E7D801E32
:10032E007E23801A7E2980167E4D80127E89800E55
:10033E007E81800A7E3D80067E0180027E09740ADF
:04034E002DF8A606DA
:010352002288
:1000FD0012041E12043A12042DE5176401704EE528
:10010D000E651A7002E519604485110F851210D322
:10011D00E51294FFE511940F501885128285118315
:10012D00E50EF0751900F51A0512E512701F05118F
:10013D00801BE4F511F512851282851183E50EF011
:10014D00751900F51A0512E51270020511E517640F
:10015D00027034D3E51094FFE50F940F5013851002
:10016D0082850F83E0F5180510E510701A050F80D4
:10017D0016E4F50FF510851082850F83E0F518054F
:10018D0010E5107002050FE52320E00302010612B1
:08019D0002315323FE020106AA
:04038D000225000045
:0D042D00759D0875BC837F027E0002000EE5
:10039B0075BC8BE51724FE601414601E24027028B4
:1003AB0012040B752540752600AD27801812040B1F
:1003BB00752540752600AD18800B12040B75254072
:0903CB00752600E4FD1204132262
:0C040B00752520752600AD13AF26AE2528
:070417008F828E83EDF022BD
:03002B000203D4F9
:1003D400C0E0C0D075BC8385BD0EE51724FE600364
:0E03E400047003850E1375BD00D0D0D0E0323A
:10000E00EF1FAA0670011E4A60107C137D88ED1D3D
:0A001E00AA0470011C4A60E880F497
:0100280022B5
:0603910001280001270015
:0303970001290039
:1003F200E52320E01330000405248009300009744D
:09040200052524F5244323012201
:10023100E52414B40800506190024775F003A4C589
:100241008325F0C583730202610202610202610229
:100251000265020277020280020289020292800094
:1002610085241722E5176401702FE529700475298B
:100271000122E4F52922E517B4011E75280122E5C2
:1002810017B4011575280222E517B4010C7528036E
:0A02910022E517B4010375280422CA
:030000000201A555
:0C01A500787FE4F6D8FD7581290201EC9A
:1001B1000200FDE493A3F8E493A34003F68001F267
:1001C10008DFF48029E493A3F85407240CC8C3334F
:1001D100C4540F4420C8834004F456800146F6DF1E
:1001E100E4800B0102040810204080900353E47E58
:1001F100019360BCA3FF543F30E509541FFEE49313
:10020100A360010ECF54C025E060A840B8E493A3D9
:10021100FAE493A3F8E493A3C8C582C8CAC583CA04
:10022100F0A3C8C582C8CAC583CADFE9DEE780BEBC
:01039A000062
:00000001FF
