:10000E000410FEFEFEFE01190002170000021C0085
:0C001E000001140002156000021A00012D
:1002A0005389F0438902758A06758C06D28CD2A9CF
:0102B000222B
:10028D00C2A8D2A9C2AAC2ABD2ACD2AFC2B9D2BA9D
:03029D00C2BC22BE
:10015C00E51914600B14600C2402700C7F01800AEA
:10016C007F0280067F0480027F087E80E4FDEF5EC4
:10017C006004D2908002C290C291D291C291EEC31F
:10018C0013FE53067F0DBD08E574102519F8E6FF24
:10019C000519E519C394044003E4F5197E80E4FDC8
:1001AC00EF5E6004D2908002C290C291D291C29153
:0E01BC00EEC313FE0DBD08E8C292D292C292AD
:0101CA002212
:03000B00020220CE
:10022000C0E0C0D075D000C000C005C006C007C285
:10023000AF051DE51D7002051C6414451C701112EC
:10024000015C0518E51870020517751C00751D0086
:0F025000D2AFD007D006D005D000D0D0D0E0324A
:1001CB00EFB4090050469001D8F82828730201F3C8
:1001DB000201F70201FB0201FF0202030202070206
:1001EB00020B02020F0202137E1180227E7D801E03
:1001FB007E23801A7E2980167E4D80127E89800E8A
:10020B007E81800A7E3D80067E0180027E0974100D
:04021B002DF8A6060E
:01021F0022BC
:0B02B1001202A012028D12027780FEE4
:10027700759D0875BCCBE4F5BDF5BED2AD75B82448
:060287007F02FE02025F8F
:03002B0002002EA2
:10002E00C0E0C0F0C083C082C0D075D00853BCEF12
:10003E00E5A0640524FF9200E5A0640624FF92016A
:10004E00E5A0640724FF920243A02053A0BF53A053
:10005E007FC3E51D9410E51C648094804019E5155E
:10006E00648094F05011851682851583E5BDF005E8
:10007E0016E5167002051585BD1475BD0075BE001A
:10008E0053A0EF43A04053A07F53B0BF8514807F91
:10009E000A7E0012025F30000543A020800353A0A9
:1000AE00EF30010543A040800353A0BF300205434B
:1000BE00A080800353A07FD0D0D082D083D0F0D048
:0200CE00E0321E
:10025F00E4FDFCC3ED9FEE6480F8EC6480985007DA
:07026F000DBD00010C80EC45
:010276002265
:030000000200D02B
:0C00D000787FE4F6D8FD7581200201174E
:1000DC000202B1E493A3F8E493A34003F68001F287
:1000EC0008DFF48029E493A3F85407240CC8C33325
:1000FC00C4540F4420C8834004F456800146F6DFF4
:10010C00E4800B010204081020408090000EE47E75
:10011C00019360BCA3FF543F30E509541FFEE493E8
:10012C00A360010ECF54C025E060A840B8E493A3AF
:10013C00FAE493A3F8E493A3C8C582C8CAC583CADA
:10014C00F0A3C8C582C8CAC583CADFE9DEE780BE92
:01002A0000D5
:00000001FF
