:100B9C00023C000002210000023A00000423FEFE89
:100BAC00FEFE0137000440F7FBFDFE02350000029B
:100BBC003E0000012900013400013900022C000024
:100BCC00022A0000022E1000023011000232120024
:0A0BDC000227130001440001380154
:0F0CAE005389F0438902758A06758C06D28C2211
:0B0CCA00D2AFD2A9D2ADD2B9C2BD2278
:1009AE00E53714600E14600F146010240370107F6E
:1009BE0001800E7F02800A7F0480067F0880027FFE
:1009CE00107E80E4FDEF5E6004D2908002C290C281
:1009DE0091D291C291EEC313FE53067F0DBD08E571
:1009EE00E537D39403500974232537F8E6FF801BAF
:1009FE00E53824FE600B14600C2402700C7FFB8023
:100A0E000A7FFD80067FFE80027F7F853745053792
:100A1E00E537D394044003E4F5377E80E4FDEF5EC2
:100A2E006004D2908002C290C291D291C291EEC364
:0C0A3E0013FE0DBD08E8C292D292C292D5
:010A4A002289
:03000B00020B41A4
:100B4100C0E0C0F0C083C082C0D075D000C000C07A
:100B510001C002C003C004C005C006C007C2AF0582
:100B61003FE53F7002053E120C49E53F6414453EE6
:100B7100700C1209AE120C82753E00753F00D2AFA7
:100B8100D007D006D005D004D003D002D001D000C8
:0B0B9100D0D0D082D083D0F0D0E03272
:100BF400EFB409005046900C01F8282873020C1C2D
:100C0400020C20020C24020C28020C2C020C3002D0
:100C14000C34020C38020C3C7E1180227E7D801E36
:100C24007E23801A7E2980167E4D80127E89800E56
:100C34007E81800A7E3D80067E0180027E097423C7
:040C44002DF8A606DB
:010C48002289
:10048400439701120CAE120CCA120CBD1207BBE545
:10049400386401704EE529653B7002E53A60448595
:1004A4002C2A852D2BD3E52D94FFE52C940F501881
:1004B400852D82852C83E529F0753A00F53B052DC1
:1004C400E52D701F052C801BE4F52CF52D852D8260
:1004D400852C83E529F0753A00F53B052DE52D7053
:1004E40002052CE53824FE70030205FA1470030299
:1004F40006392402600302063C852934E51724FEEC
:10050400604C14700302058B1470030205C32403AA
:10051400600302063CD3E52F94FFE52E941050149B
:10052400852F82852E83E0F516052FE52F7055055E
:100534002E02063C752E10752F00852F82852E8382
:10054400E0F516052FE52F7002052E02063CD3E5D3
:100554003194FFE53094115014853182853083E065
:10056400F5160531E5317002053002063C7530118F
:10057400753100853182853083E0F5160531E5312A
:100584007002053002063CD3E53394FFE532941241
:100594005014853382853283E0F5160533E53370D4
:1005A40002053202063C75321275330085338285AA
:1005B4003283E0F5160533E533700205328079D3D2
:1005C400E52894FFE5279413501385288285278313
:1005D400E0F5160528E52870020527805B752713CA
:1005E400752800852882852783E0F5160528E528E7
:1005F400704605278042852934E53864027039D372
:10060400E52B94FFE52A940F5013852B82852A83CA
:10061400E0F539052BE52B701F052A801BE4F52A2C
:10062400F52B852B82852A83E0F539052BE52B7084
:1006340007052A8003852934E54420E00302049356
:09064400120AD75344FE0204938C
:040BE60002140000F5
:0D0CBD00759D0875BC837F027E0002000E4D
:100C490075BC8BE53824FE601414601E24027028DC
:100C5900120C9B751420751500AD168018120C9B8B
:100C6900751420751500AD39800B120C9B75142075
:090C7900751500E4FD120CA32224
:0C0C9B00751440751500AD34AF15AE1493
:070CA7008F828E83EDF02225
:03002B00020003CD
:0700030075BC8385BD2932A5
:10000E00EF1FAA0670011E4A60107C037DE8ED1DED
:0A001E00AA0470011C4A60E880F497
:0100280022B5
:060BEA00011700011600D6
:1007BB00E4F508F509F50AF50BF50AF50B750810C4
:1007CB00F509D3E50994FFE50894105052AC0AAD36
:1007DB000BE41202D17BC37AF579487840120126DB
:1007EB00E4FBFAF9784312022F1206ABE4FBFA7919
:1007FB0080783F120035E4FBFAF978431201261298
:10080B0008FE12030A850982850883EFF00509E5C6
:10081B000970020508050BE50B70A7050A80A3E418
:10082B00F50AF50B750811F509D3E5099479E50877
:10083B009411501DE50B25E0850982850883F00591
:10084B0009E50970020508050BE50B70DC050A804C
:10085B00D8E4F50AF50B750811750980D3E50994F1
:10086B00FFE5089411501FE50B25E0F40485098280
:10087B00850883F00509E50970020508050BE50BF2
:10088B0070DA050A80D6750812750900850982850C
:10089B000883E4F00509E50970020508B47AEDE573
:1008AB0008B412E8750812750980850982850883DA
:1008BB00E4F00509E50970020508B400EDE508B49C
:1008CB0013E8E4F50AF50B750813F509D3E509945C
:1008DB00FFE5089413501B850982850883E50BF00F
:1008EB000509E50970020508050BE50B70DE050A25
:0208FB0080DAA1
:0108FD0022D8
:030BF000011800E9
:100C8200E54420E01330B5040545800930B4097409
:090C9200052545F5454344012206
:100AD700E54514B408005061900AED75F003A4C50C
:100AE7008325F0C58373020B07020B07020B07026E
:100AF7000B0B020B1D020B26020B2F020B3880007B
:100B070085453822E5386401702FE518700475189B
:100B17000122E4F51822E538B4011E75170122E514
:100B270038B4011575170222E538B4010C7517039F
:0A0B370022E538B40103751704220B
:10002E00020376E86480F8E933E83360110460F087
:10003E00ED33EC337009E8FCE9FDEAFEEBFF220438
:10004E0060DED3EB9FEA9EE99DE8C2E78CF0C2F733
:10005E0095F0400CE8CCF8E9CDF9EACEFAEBCFFBFF
:10006E0012034185D0F05804700320D5B3E8047014
:10007E00075002B2D502038092D5EC0460F7E4CCAF
:10008E00C0E0C398F8603B94186008400DD0E0FBC8
:10009E00020358E4FBFAC9FC8028E830E406E4C900
:1000AE00FBE4CAFCE830E305E4C9CACBFCE854071C
:1000BE006010F8C3E913F9EA13FAEB13FBEC13FC27
:1000CE00D8F130F52FC3E49CFCEF9BFFEE9AFEEDCA
:1000DE0099FDD0E0FBEF4E4D4C701222DB03020374
:1000EE007DEC2CFCEF33FFEE33FEED33FDED30E710
:1000FE00EB020358EF2BFFEE3AFEED39FDD0E0FB9D
:10010E0050130BBB0003020380ED13FDEE13FEEF45
:08011E0013FFEC13FC0203586F
:10012600EC4D6011E8497017ED33EC3304600DE4D3
:10013600FCFFFEFD22E933E8330470F80203761271
:10014600034158046009E4CC248150062850090272
:10015600038028400302037DC0E0EB4A7044B98067
:1001660006D0E0FB02036CEF4E701CBD8008EBFF6F
:10017600EAFEE9FD80EBE98DF0A4FEE5F002020F50
:10018600E9CDF9EAFEEBFFEF89F0A4FCE5F0CE89B4
:10019600F0A42EFFE435F0CD89F0A42DFEE435F071
:1001A6008067EF4E7005BD80D780C3EF8BF0A4AC9F
:1001B600F0EE8BF0A42CFCE435F0F8EF8AF0A42CDA
:1001C600E5F038FCE433CB8DF0A42CFCE5F03BF8ED
:1001D600EE8AF0A42CFCE5F038F8E433CF89F0A4DD
:1001E6002CFCE5F038CF3400CE89F0A42FFFE5F0E3
:1001F6003EFEE433C98DF0A42EFEE5F039CD8AF03B
:10020600A42FFFE5F03EFEE43DFD33D0E0FB5007B2
:100216000BBB000F020380EC2CFCEF33FFEE33FE2A
:06022600ED33FD02035858
:10022C00020380EC5D046005E85904700302037658
:10023C00120341580460F6EC4860F2EC7004FDFEC9
:10024C00FF22C860DB2481C85009C39860025006A5
:10025C0002037D9850CAF582E9294B4A7005AB829E
:10026C0002036C75F0007C1A7880C3EF9BEE9AED5C
:10027C0099400DC3EF9BFFEE9AFEED99FDE842F01D
:10028C00DC23ACF0D0E0FFD0E0FED0E0FDAB822070
:10029C00E7101BEB60BAEC2CFCEF33FFEE33FEEDFA
:1002AC0033FD020358E803F830E705C0F075F000A1
:1002BC00EF2FFFEE33FEED33FD40B830E7C280AADE
:1002CC0075F020800E75F010800575F0087D007EAD
:1002DC00007F003392D530D503120445EC33401027
:1002EC00EF33FFEE33FEED33FDEC33FCD5F0ED22B6
:0E02FC00E5F0247EA2D513CC92E7CDCEFF22F2
:10030A00EDD2E7CD33EC3392D524814006E4FFFEEB
:10031A00FDFC22FCE4CFCECDCC24E0501174FF804A
:10032A00EDC3CC13CCCD13CDCE13CECF13CF0470E7
:07033A00F030D5DE0204459E
:10064D003A70FA83BCAAE9E43E81E0F8BF9DE9E681
:10065D003F80000039283C1ABB9969663DA335E3FC
:10066D00BF255DE73FC90FDB418DDBCCC44936EEBD
:10067D0045C9913FC5B0F83D3F800000C317F53423
:10068D00452FFA73C60AFDDD12073C04A2E1920064
:10069D001420E01590064D74041203F880261207FD
:1006AD003C30E102B20020E0EB8C0C8D0D8E0E8FF4
:1006BD000F90066174041203F8A80CA90DAA0EABD5
:1006CD000F120126ED4C6007300004EC6480FC2213
:1006DD0012073CC0E08C0C8D0D8E0E8F0F90068591
:1006ED0074031203F8A80CA90DAA0EAB0F12012664
:1006FD00ECC50CFCEDC50DFDEEC50EFEEFC50FFFF7
:10070D0090067574031203F8D082A80CA90DAA0ED9
:10071D00AB0FE58230E00712022FB20080A6EFCBBF
:10072D00FFEECAFEEDC9FDECC8FC12022F8095ED5F
:10073D0033EC547FCC33920024605007D0E0D0E0EE
:10074D000203767B837AF97922783E120126EDF940
:10075D0033ECF83324815011EFFBEEFA12030A1239
:10076D0002CCECB2E7FC120035ED33EC33602F24F4
:10077D0003F8C313FCED92E7FDE82481E4501FEC70
:10078D00F8EDF9EEFAEFFB12030AEF04C2E0FCF507
:10079D00821202D6ECB2E7FC120035E58203FAEDC7
:0E07AD0033EC3360071413FCED92E7FDEA22F3
:1008FE008F0F8E0E8D0D8C0C74FFFFFEFDFCAB0F5B
:10090E00AA0EA90DA80CC3120453602C7F807E96EC
:10091E007D187C4BAB0FAA0EA90DA80C12038B6091
:10092E000250157F807E967D187CCBAB0FAA0EA948
:10093E000DA80C12038B5009AF0FAE0EAD0DAC0C03
:10094E0022AF0FAE0EAD0DAC0C12030A8F138E122A
:10095E008D118C10EC1202CCC8ECC8C9EDC9CAEED0
:10096E00CACBEFCBAF0FAE0EAD0DAC0C120031E417
:10097E00FBFAF9F812038B601A401874FF2513F571
:10098E0013E51234FFF512E51134FFF511E51034BD
:10099E00FFF510AF13AE12AD11AC10EC1202CC225B
:10034100E9D2E7C933E833F892D5EDD2E7CD33EC02
:0703510033FC5002B2D5227B
:10035800EC30E7100FBF000C0EBE00080DBD000406
:100368000BEB6014A2D5EB13FCED92E7FD2274FFB2
:10037800FCFDFEFF22E480F8A2D574FF13FC7D800B
:03038800E480EF1F
:10038B0074F8CC6480CCC86480C8F582046043C325
:10039B00EB9FF5F0EA9E42F0E99D42F0E89C45F0B8
:1003AB0060305018E5825FFFE582F42B5582FB50DD
:1003BB00210ABA001D09B90019088016E5825BFBFA
:1003CB00E582F42F5582FF50090EBE00050DBD00CE
:1003DB00010CC3EB9FF5F0EA9E42F0E99D42F0E879
:0D03EB009C45F06007CC4820E701B3EC22F0
:1003F800C0E0EFFBEEFAEDF9ECF8120126D0E0F5DB
:10040800F0EFFBEEFAEDF9ECF8120464A3A3A3A352
:10041800E8C0E0E9C0E0EAC0E0EBC0E0C0F01201EB
:1004280026120474A3A3A3A3120035D0F0D0E0FBD6
:0D043800D0E0FAD0E0F9D0E0F8D5F0D42201
:03000000020A4BA6
:0C0A4B00787FE4F6D8FD758145020A9220
:0E044500C3E49FFFE49EFEE49DFDE49CFC22C8
:10045300EB9FF5F0EA9E42F0E99D42F0E89C45F0FF
:010463002276
:10046400E493FC740193FD740293FE740393FF22DE
:10047400E493F8740193F9740293FA740393FB22DE
:100A5700020484E493A3F8E493A34003F68001F22D
:100A670008DFF48029E493A3F85407240CC8C333A0
:100A7700C4540F4420C8834004F456800146F6DF6F
:100A8700E4800B0102040810204080900B9CE47E58
:100A9700019360BCA3FF543F30E509541FFEE49364
:100AA700A360010ECF54C025E060A840B8E493A32B
:100AB700FAE493A3F8E493A3C8C582C8CAC583CA56
:100AC700F0A3C8C582C8CAC583CADFE9DEE780BE0E
:010BF3000001
:00000001FF
