:100395000421FEFEFEFE012C000430F7FBFDFE02EB
:1003A5002A0000022E000001250002286000022616
:0803B5006000012D000134007D
:10041E005389F0438902758A06758C06D28CD2A94F
:01042E0022AB
:10040B00C2A8D2A9C2AAC2ABD2ACD2AFC2B9D2BA1D
:03041B00C2BC223E
:10011D00E52C14600B14600C2402700C7F01800A16
:10012D007F0280067F0480027F087E80E4FDEF5E03
:10013D006004D2908002C290C291D291C291EEC35E
:10014D0013FE53067F0DBD08E57421252CF8E6FF3F
:10015D00852C35052CE52CC394044003E4F52C7E49
:10016D0080E4FDEF5E6004D2908002C290C291D215
:10017D0091C291EEC313FE0DBD08E8C292D292C298
:10018D00927F107E80E4FDEF5E6004D2908002C20B
:10019D0090C291D291C291EEC313FE53067F0DBD55
:1001AD0008E5E52D14600B14600C2402700C7FF72C
:1001BD00800A7FFB80067FFD80027F0E7E80E4FD3E
:1001CD00EF5E6004D2908002C290C291D291C29132
:0E01DD00EEC313FE0DBD08E8C292D292C2928C
:0101EB0022F1
:03000B000202E20C
:1002E200C0E0C0F0C083C082C0D075D000C000C0E2
:1002F20001C002C003C004C005C006C007C2AF05EA
:100302002FE52F7002052E6414452E701412011D64
:1003120012000E052BE52B7002052A752E00752F93
:1003220000D2AFD007D006D005D004D003D002D07F
:0E03320001D000D0D0D082D083D0F0D0E03205
:10034000EFB40900504690034DF828287302036863
:1003500002036C02037002037402037802037C023E
:1003600003800203840203887E1180227E7D801E2A
:100370007E23801A7E2980167E4D80127E89800E13
:100380007E81800A7E3D80067E0180027E09742186
:040390002DF8A60698
:010394002246
:1003DF0012041E12040B1203F5E53430E0FB120277
:0603EF00785334FE80F398
:0303BD000110002C
:1003F500759D0875BCCBE4F5BDF5BED2AD75B824C9
:060405007F02FE0203C7A6
:03002B0002002EA2
:10002E00C0E0C0F0C083C082C0D075D00853BCEF12
:10003E00E5A0640524FF9200E5A0640624FF92016A
:10004E00E5A0640724FF9202E52D6402602F43A011
:10005E002053A0BF53A07FC3E52F9410E52E6480DC
:10006E0094804019E528648094F05011852982858A
:10007E002883E5BDF00529E5297002052885BD25F3
:10008E0075BD0075BE0053A0EF43A04053A07F5333
:10009E00B0BF8525807F0A7E001203C7E52D64025E
:1000AE007041D3E5279529E5286480F8E52664801C
:1000BE0098503043A02053A0BF53A07F8527828540
:1000CE002683E0F5100527E5277002052653A0EFDD
:1000DE0043A04053A07F53B0BF8510807F0A7E009F
:1000EE001203C730000543A020800353A0EF300158
:1000FE000543A040800353A0BF30020543A080807B
:0F010E000353A07FD0D0D082D083D0F0D0E03286
:1003C700E4FDFCC3ED9FEE6480F8EC648098500771
:0703D7000DBD00010C80ECDC
:0103DE0022FC
:0303C00001110028
:10000E00E53420E013300004053580093000097412
:09001E00052535F53543340122B6
:10027800E53514B40800506190028E75F003A4C5EA
:100288008325F0C583730202A80202A80202A8020D
:1002980002AC0202BE0202C70202D00202D98000EA
:1002A80085352D22E52D6401702FE5117004751137
:1002B8000122E4F51122E52DB4011E75120122E593
:1002C8002DB4011575120222E52DB4010C75120327
:0A02D80022E52DB401037512042283
:0303C30001120024
:030000000201EC0E
:0C01EC00787FE4F6D8FD758135020233FF
:1001F8000203DFE493A3F8E493A34003F68001F23B
:1002080008DFF48029E493A3F85407240CC8C33307
:10021800C4540F4420C8834004F456800146F6DFD6
:10022800E4800B0102040810204080900395E47ECE
:10023800019360BCA3FF543F30E509541FFEE493CB
:10024800A360010ECF54C025E060A840B8E493A392
:10025800FAE493A3F8E493A3C8C582C8CAC583CABD
:10026800F0A3C8C582C8CAC583CADFE9DEE780BE75
:0103C6000036
:00000001FF
