:100D0F0002430000022100000241000004231111E0
:100D1F001111013E000447F7FBFDFE023C000002EB
:100D2F00450000012900013700014000022C00009E
:100D3F00022A0000023110000233110002351200A6
:100D4F0002271300014B00013F010438111111114B
:0F0E99005389F0438902758A06758C06D28C2224
:0F0EA80053890F438920758B06758D06D28E22D4
:0F0EB700D2AFD2A9D2ABD2ADD2B9C2BBC2BD228B
:100AFF00E53E14600E14600F146010240370107F15
:100B0F0001800E7F02800A7F0480067F0880027FAB
:100B1F00107E80E4FDEF5E6004D2908002C290C22E
:100B2F0091D291C291EEC313FE53067F0DBD08E51E
:100B3F00E53ED3940350097423253EF8E6FF801B4E
:100B4F00E53F24FE600B14600C2402700C7FF780CD
:100B5F000A7FFB80067FFD80027FFEE53ED3940374
:100B6F005003853E4C053EE53ED394044003E4F527
:100B7F003E7E80E4FDEF5E6004D2908002C290C2A0
:100B8F0091D291C291EEC313FE0DBD08E8C292D26D
:030B9F0092C2926D
:010BA2002230
:03000B00020C2FB5
:100C2F00C0E0C0F0C083C082C0D075D000C000C08B
:100C3F0001C002C003C004C005C006C007C2AF0593
:100C4F0046E54670020545120E19E5466403454513
:100C5F006010E546640645456008E546640945456C
:100C6F0070031207E0E546640A4545700C120AFF4F
:100C7F00120E6D754500754600D2AFD007D006D065
:100C8F0005D004D003D002D001D000D0D0D082D074
:060C9F0083D0F0D0E0322A
:03001B00020DC90A
:100DC900C0E0C0D0C2AF053DE53D7002053C64F40A
:100DD9007004E53C64016031E53DB4D010E53CB4F4
:100DE900070B853924853A25853B26801CE53DB4CA
:100DF900A017E53CB40F12752411E53A54FEF52508
:100E0900853B26753C00753D00D2AFD0D0D0E0328D
:1007E000E53F640160030208DFE51E24FE604C144F
:1007F00070030208731470030208AA240360030242
:1008000008DFD3E53294FFE531941050148532822D
:10081000853183E0F51D0532E532701C0531020893
:10082000DF753110753200853282853183E0F51D28
:100830000532E532700205310208DFD3E53494F366
:10084000E53394115014853482853383E0F51D051A
:1008500034E534700205330208DF75331175340056
:10086000853482853383E0F51D0534E534707005E9
:1008700033806CD3E53694F3E53594125013853606
:1008800082853583E0F51D0536E5367052053580E5
:100890004E753512753600853682853583E0F51D37
:1008A0000536E536703905358035D3E5289479E588
:1008B0002794135013852882852783E0F51D05288A
:1008C000E528701B052780177527137528008528D4
:1008D00082852783E0F51D0528E52870020527E5B8
:1008E0003F64027033D3E52B9400E52A9404501240
:1008F000852B82852A83E0F540052BE52B701905B1
:100900002A22E4F52AF52B852B82852A83E0F540FF
:09091000052BE52B7002052A22DB
:100D7400EFB409005046900D81F8282873020D9CA9
:100D8400020DA0020DA4020DA8020DAC020DB002CA
:100D94000DB4020DB8020DBC7E1180227E7D801E32
:100DA4007E23801A7E2980167E4D80127E89800ED5
:100DB4007E81800A7E3D80067E0180027E09743831
:040DC4002DF8A6065A
:010DC8002208
:10091900439709120E99120EA8120EB712000E1261
:10092900068FE53F64016006E53F6403704EE529E3
:1009390065427002E5416044852C2A852D2BD3E55B
:100949002D9400E52C94045018852D82852C83E57F
:1009590029F0754100F542052DE52D701F052C8004
:100969001BE4F52CF52D852D82852C83E529F07561
:100979004100F542052DE52D7002052CE53F24FEC9
:1009890060091460082402700780028000852937F5
:10099900E54B30E006120CA5534BFEC3E53D94D060
:0609A900E53C94075041FB
:1009AF00AE18AF197C007D641204578F08AE18AFD4
:1009BF00197C007D641204578D097D01AF08120D5B
:1009CF0074E50975F00A84F508E50975F00A848560
:0E09DF00F0090DAF08120D740DAF09120D7462
:0309ED0002092BD1
:1009F000AF1AEF3395E0FE7C017D001204577C00B6
:100A00007D0A120445AC06AD07EC1202D18F0B8EA5
:100A10000A8D098C08120A4F12030A8F2E7D0212CA
:100A20000D74E4FFFE7D207C41AB0BAA0AA909A846
:100A300008120126120A4F12030A8F2FE52F75F0B4
:0C0A40000A8485F0307D03AF30120D7485
:030A4C0002092B71
:040D5F00021B000073
:0D000E00759D0875BC837F027E00020E52B6
:100E190075BC8BE53F24FE601414601E2402702803
:100E2900120E86751B20751C00AD1D8018120E86CA
:100E3900751B20751C00AD40800B120E86751B209A
:090E4900751C00E4FD120E8E225E
:0C0E8600751B40751C00AD37AF1CAE1B87
:070E92008F828E83EDF02238
:03002B00020003CD
:0700030075BC8385BD2932A5
:100E5200EF1FAA0670011E4A60107C037DE8ED1D9B
:0A0E6200AA0470011C4A60E880F445
:010E6C002263
:060D6300011E00011D004D
:10068F00E4F50CF50DF50EF50FF50EF50F750C10D5
:10069F00F50DD3E50D94FFE50C9410505DAC0EAD48
:1006AF000FE41202D17BC37AF57948784012012604
:1006BF00E4FBFAF9784312022F12057FE4FBFA7973
:1006CF0080783F120035E4FBFA79807842120126D8
:1006DF00120A4FE4FBFA7920784212003512030A0E
:1006EF00850D82850C83EFF0050DE50D7002050C6D
:1006FF00050FE50F709C050E8098E4F50EF50F754C
:10070F000C11F50DD3E50D9479E50C9411501DE501
:10071F000F2414850D82850C83F0050DE50D7002F5
:10072F00050C050FE50F70DC050E80D8E4F50EF50E
:10073F000F750C11750D7AD3E50D94F3E50C94112B
:10074F00501EC3748D950F850D82850C83F0050D9A
:10075F00E50D7002050C050FE50F70DB050E80D758
:10076F00750C12750D00850D82850C837496F0053E
:10077F000DE50D7002050CB47AECE50CB412E775BB
:10078F000C12750D7A850D82850C83741EF0050D84
:10079F00E50D7002050CB4F4ECE50CB412E7E4F5CA
:1007AF000EF50F750C13F50DD3E50D9479E50C943B
:1007BF0013501DE50F2414850D82850C83F0050D54
:1007CF00E50D7002050C050FE50F70DC050E80D8E6
:0107DF0022F7
:030D6900011F0067
:100E6D00E54B20E01330B504054C800930B409740E
:090E7D0005254CF54C434B012204
:100CA500E54C14B408005061900CBB75F003A4C565
:100CB5008325F0C58373020CD5020CD5020CD50231
:100CC5000CD9020CEB020CF4020CFD020D0680009F
:100CD500854C3F22E53F6401702FE51F7004751FA9
:100CE5000122E4F51F22E53FB4011E751E0122E530
:100CF5003FB40115751E0222E53FB4010C751E03B4
:0A0D050022E53FB40103751E04222D
:070D6C0002180000011A004B
:01000A0022D3
:10002E00020376E86480F8E933E83360110460F087
:10003E00ED33EC337009E8FCE9FDEAFEEBFF220438
:10004E0060DED3EB9FEA9EE99DE8C2E78CF0C2F733
:10005E0095F0400CE8CCF8E9CDF9EACEFAEBCFFBFF
:10006E0012034185D0F05804700320D5B3E8047014
:10007E00075002B2D502038092D5EC0460F7E4CCAF
:10008E00C0E0C398F8603B94186008400DD0E0FBC8
:10009E00020358E4FBFAC9FC8028E830E406E4C900
:1000AE00FBE4CAFCE830E305E4C9CACBFCE854071C
:1000BE006010F8C3E913F9EA13FAEB13FBEC13FC27
:1000CE00D8F130F52FC3E49CFCEF9BFFEE9AFEEDCA
:1000DE0099FDD0E0FBEF4E4D4C701222DB03020374
:1000EE007DEC2CFCEF33FFEE33FEED33FDED30E710
:1000FE00EB020358EF2BFFEE3AFEED39FDD0E0FB9D
:10010E0050130BBB0003020380ED13FDEE13FEEF45
:08011E0013FFEC13FC0203586F
:10012600EC4D6011E8497017ED33EC3304600DE4D3
:10013600FCFFFEFD22E933E8330470F80203761271
:10014600034158046009E4CC248150062850090272
:10015600038028400302037DC0E0EB4A7044B98067
:1001660006D0E0FB02036CEF4E701CBD8008EBFF6F
:10017600EAFEE9FD80EBE98DF0A4FEE5F002020F50
:10018600E9CDF9EAFEEBFFEF89F0A4FCE5F0CE89B4
:10019600F0A42EFFE435F0CD89F0A42DFEE435F071
:1001A6008067EF4E7005BD80D780C3EF8BF0A4AC9F
:1001B600F0EE8BF0A42CFCE435F0F8EF8AF0A42CDA
:1001C600E5F038FCE433CB8DF0A42CFCE5F03BF8ED
:1001D600EE8AF0A42CFCE5F038F8E433CF89F0A4DD
:1001E6002CFCE5F038CF3400CE89F0A42FFFE5F0E3
:1001F6003EFEE433C98DF0A42EFEE5F039CD8AF03B
:10020600A42FFFE5F03EFEE43DFD33D0E0FB5007B2
:100216000BBB000F020380EC2CFCEF33FFEE33FE2A
:06022600ED33FD02035858
:10022C00020380EC5D046005E85904700302037658
:10023C00120341580460F6EC4860F2EC7004FDFEC9
:10024C00FF22C860DB2481C85009C39860025006A5
:10025C0002037D9850CAF582E9294B4A7005AB829E
:10026C0002036C75F0007C1A7880C3EF9BEE9AED5C
:10027C0099400DC3EF9BFFEE9AFEED99FDE842F01D
:10028C00DC23ACF0D0E0FFD0E0FED0E0FDAB822070
:10029C00E7101BEB60BAEC2CFCEF33FFEE33FEEDFA
:1002AC0033FD020358E803F830E705C0F075F000A1
:1002BC00EF2FFFEE33FEED33FD40B830E7C280AADE
:1002CC0075F020800E75F010800575F0087D007EAD
:1002DC00007F003392D530D50312048DEC334010DF
:1002EC00EF33FFEE33FEED33FDEC33FCD5F0ED22B6
:0E02FC00E5F0247EA2D513CC92E7CDCEFF22F2
:10030A00EDD2E7CD33EC3392D524814006E4FFFEEB
:10031A00FDFC22FCE4CFCECDCC24E0501174FF804A
:10032A00EDC3CC13CCCD13CDCE13CECF13CF0470E7
:07033A00F030D5DE02048D56
:100521003A70FA83BCAAE9E43E81E0F8BF9DE9E6AE
:100531003F80000039283C1ABB9969663DA335E329
:10054100BF255DE73FC90FDB418DDBCCC44936EEEA
:1005510045C9913FC5B0F83D3F800000C317F53450
:10056100452FFA73C60AFDDD12061004A2E19200BE
:100571001420E01590052174041203F88026120658
:100581001030E102B20020E0EB8C108D118E128F41
:100591001390053574041203F8A810A911AA12AB1F
:1005A10013120126ED4C6007300004EC6480FC223C
:1005B100120610C0E08C108D118E128F1390055908
:1005C10074031203F8A810A911AA12AB1312012681
:1005D100ECC510FCEDC511FDEEC512FEEFC513FF14
:1005E10090054974031203F8D082A810A911AA1228
:1005F100AB13E58230E00712022FB20080A6EFCBE9
:10060100FFEECAFEEDC9FDECC8FC12022F8095ED8C
:1006110033EC547FCC33920024605007D0E0D0E01B
:100621000203767B837AF97922783E120126EDF96D
:1006310033ECF83324815011EFFBEEFA12030A1266
:1006410002CCECB2E7FC120035ED33EC33602F2421
:1006510003F8C313FCED92E7FDE82481E4501FEC9D
:10066100F8EDF9EEFAEFFB12030AEF04C2E0FCF534
:10067100821202D6ECB2E7FC120035E58203FAEDF4
:0E06810033EC3360071413FCED92E7FDEA2220
:100A4F008F138E128D118C1074FFFFFEFDFCAB13F4
:100A5F00AA12A911A810C312049B602C7F807E9646
:100A6F007D187C4BAB13AA12A911A81012038B602F
:100A7F000250157F807E967D187CCBAB13AA12A9EE
:100A8F0011A81012038B5009AF13AE12AD11AC1099
:100A9F0022AF13AE12AD11AC1012030A8F178E16C0
:100AAF008D158C14EC1202CCC8ECC8C9EDC9CAEE76
:100ABF00CACBEFCBAF13AE12AD11AC10120031E4B5
:100ACF00FBFAF9F812038B601A401874FF2517F51B
:100ADF0017E51634FFF516E51534FFF515E5143453
:100AEF00FFF514AF17AE16AD15AC14EC1202CC22F5
:10034100E9D2E7C933E833F892D5EDD2E7CD33EC02
:0703510033FC5002B2D5227B
:10035800EC30E7100FBF000C0EBE00080DBD000406
:100368000BEB6014A2D5EB13FCED92E7FD2274FFB2
:10037800FCFDFEFF22E480F8A2D574FF13FC7D800B
:03038800E480EF1F
:10038B0074F8CC6480CCC86480C8F582046043C325
:10039B00EB9FF5F0EA9E42F0E99D42F0E89C45F0B8
:1003AB0060305018E5825FFFE582F42B5582FB50DD
:1003BB00210ABA001D09B90019088016E5825BFBFA
:1003CB00E582F42F5582FF50090EBE00050DBD00CE
:1003DB00010CC3EB9FF5F0EA9E42F0E99D42F0E879
:0D03EB009C45F06007CC4820E701B3EC22F0
:1003F800C0E0EFFBEEFAEDF9ECF8120126D0E0F5DB
:10040800F0EFFBEEFAEDF9ECF81204ACA3A3A3A30A
:10041800E8C0E0E9C0E0EAC0E0EBC0E0C0F01201EB
:10042800261204BCA3A3A3A3120035D0F0D0E0FB8E
:0D043800D0E0FAD0E0F9D0E0F8D5F0D42201
:03000000020BA34D
:0C0BA300787FE4F6D8FD75814C020BEA67
:10044500EF8DF0A4A8F0CF8CF0A428CE8DF0A42ECB
:02045500FE2285
:10045700C2D5EC30E709B2D5E4C39DFDE49CFCEEC0
:1004670030E715B2D5E4C39FFFE49EFE1204CCC368
:10047700E49DFDE49CFC80031204CC30D507C3E463
:060487009FFFE49EFE222F
:0E048D00C3E49FFFE49EFEE49DFDE49CFC2280
:10049B00EB9FF5F0EA9E42F0E99D42F0E89C45F0B7
:0104AB00222E
:1004AC00E493FC740193FD740293FE740393FF2296
:1004BC00E493F8740193F9740293FA740393FB2296
:100BAF00020919E493A3F8E493A34003F68001F23A
:100BBF0008DFF48029E493A3F85407240CC8C33347
:100BCF00C4540F4420C8834004F456800146F6DF16
:100BDF00E4800B0102040810204080900D0FE47E8A
:100BEF00019360BCA3FF543F30E509541FFEE4930B
:100BFF00A360010ECF54C025E060A840B8E493A3D2
:100C0F00FAE493A3F8E493A3C8C582C8CAC583CAFC
:100C1F00F0A3C8C582C8CAC583CADFE9DEE780BEB4
:010D7300007F
:1004CC00BC000BBE0029EF8DF084FFADF022E4CC14
:1004DC00F875F008EF2FFFEE33FEEC33FCEE9DECDD
:1004EC00984005FCEE9DFE0FD5F0E9E4CEFD22ED23
:1004FC00F8F5F0EE8420D21CFEADF075F008EF2F6D
:10050C00FFED33FD4007985006D5F0F222C398FD5D
:05051C000FD5F0EA22FA
:00000001FF
