:100BD300023C000002210000023A00000423FEFE52
:100BE300FEFE0137000440F7FBFDFE023500000264
:100BF3003E0000012900013400013900022C0000ED
:100C0300022A0000022E10000230110002321200EC
:0A0C1300022713000144000138011C
:0F0CE5005389F0438902758A06758C06D28C22DA
:0B0D0100D2AFD2A9D2ADD2B9C2BD2240
:1008FB00E53714600B14600C2402700C7F01800A26
:10090B007F0280067F0480027F087E80E4FDEF5E1D
:10091B006004D2908002C290C291D291C291EEC378
:10092B0013FE53067F0DBD08E574232537F8E6FF4C
:10093B008537450537E537C394044003E4F5377E27
:10094B0080E4FDEF5E6004D2908002C290C291D22F
:10095B0091C291EEC313FE0DBD08E8C292D292C2B2
:10096B00927F107E80E4FDEF5E6004D2908002C225
:10097B0090C291D291C291EEC313FE53067F0DBD6F
:10098B0008E5E53814600B14600C2402700C7FF73B
:10099B00800A7FFB80067FFD80027F0E7E80E4FD58
:1009AB00EF5E6004D2908002C290C291D291C2914C
:0E09BB00EEC313FE0DBD08E8C292D292C292A6
:0109C900220B
:03000B00020B7075
:100B7000C0E0C0F0C083C082C0D075D000C000C04B
:100B800001C002C003C004C005C006C007C2AF0553
:100B90003FE53F7002053E120000E53F6414453E0C
:100BA00070141208FB120CB90536E53670020535D3
:100BB000753E00753F00D2AFD007D006D005D004F7
:100BC000D003D002D001D000D0D0D082D083D0F0DA
:030BD000D0E03240
:100C2B00EFB409005046900C38F8282873020C5387
:100C3B00020C57020C5B020C5F020C63020C670286
:100C4B000C6B020C6F020C737E1180227E7D801E5A
:100C5B007E23801A7E2980167E4D80127E89800E1F
:100C6B007E81800A7E3D80067E0180027E09742390
:040C7B002DF8A606A4
:010C7F002252
:10048400120CE5120D01120CF41207B8E5386401E0
:10049400704EE529653B7002E53A6044852C2A8557
:1004A4002D2BD3E52D94FFE52C940F5018852D8228
:1004B400852C83E529F0753A00F53B052DE52D7073
:1004C4001F052C801BE4F52CF52D852D82852C83AE
:1004D400E529F0753A00F53B052DE52D7002052C54
:1004E400E53824FE70030205F7147003020636246F
:1004F400026003020639852934E51724FE604C1492
:1005040070030205881470030205C024036003020B
:100514000639D3E52F94FFE52E94105014852F82CD
:10052400852E83E0F516052FE52F7055052E02065E
:1005340039752E10752F00852F82852E83E0F516D0
:10054400052FE52F7002052E020639D3E53194FFFD
:10055400E53094115014853182853083E0F5160519
:1005640031E53170020530020639753011753100FC
:10057400853182853083E0F5160531E53170020559
:1005840030020639D3E53394FFE5329412501485D2
:100594003382853283E0F5160533E5337002053284
:1005A400020639753212753300853382853283E051
:1005B400F5160533E533700205328079D3E52894C6
:1005C400FFE52794135013852882852783E0F516C9
:1005D4000528E52870020527805B75271375280018
:1005E400852882852783E0F5160528E528704605C9
:1005F400278042852934E53864027039D3E52B9489
:10060400FFE52A940F5013852B82852A83E0F53960
:10061400052BE52B701F052A801BE4F52AF52B8595
:100624002B82852A83E0F539052BE52B7007052AF3
:100634008003852934E54420E003020490120B066C
:060644005344FE02049085
:040C1D0002140000BD
:0D0CF400759D0875BC837F027E0002000E16
:100C800075BC8BE53824FE601414601E24027028A5
:100C9000120CD2751440751500AD168018120CD2C6
:100CA000751440751500AD39800B120CD2751440C7
:090CB000751500E4FD120CDA22B6
:0C0CD200751420751500AD34AF15AE147C
:070CDE008F828E83EDF022EE
:03002B00020003CD
:0700030075BC8385BD2932A5
:10000E00EF1FAA0670011E4A60107C137D88ED1D3D
:0A001E00AA0470011C4A60E880F497
:0100280022B5
:060C21000117000116009E
:1007B800E4F508F509F50AF50BF50AF50B750810C7
:1007C800F509D3E50994FFE50894105052AC0AAD39
:1007D8000BE41202D17BC37AF579487840120126DE
:1007E800E4FBFAF9784312022F1206A8E4FBFA791F
:1007F80080783F120035E4FBFAF97843120126129B
:1008080009CA12030A850982850883EFF00509E5FC
:100818000970020508050BE50B70A7050A80A3E41B
:10082800F50AF50B750811F509D3E5099479E5087A
:100838009411501DE50B25E0850982850883F00594
:1008480009E50970020508050BE50B70DC050A804F
:10085800D8E4F50AF50B750811750980D3E50994F4
:10086800FFE5089411501FE50B25E0F40485098283
:10087800850883F00509E50970020508050BE50BF5
:1008880070DA050A80D6750812750900850982850F
:100898000883E4F00509E50970020508B47AEDE576
:1008A80008B412E8750812750980850982850883DD
:1008B800E4F00509E50970020508B400EDE508B49F
:1008C80013E8E4F50AF50B750813F509D3E509945F
:1008D800FFE5089413501B850982850883E50BF012
:1008E8000509E50970020508050BE50B70DE050A28
:0208F80080DAA4
:0108FA0022DB
:030C2700011800B1
:100CB900E54420E01330000405458009300009743B
:090CC900052545F54543440122CF
:100B0600E54514B408005061900B1C75F003A4C5AC
:100B16008325F0C58373020B36020B36020B3602B1
:100B26000B3A020B4C020B55020B5E020B67800060
:100B360085453822E5386401702FE518700475186C
:100B46000122E4F51822E538B4011E75170122E5E5
:100B560038B4011575170222E538B4010C75170370
:0A0B660022E538B4010375170422DC
:10002E00020376E86480F8E933E83360110460F087
:10003E00ED33EC337009E8FCE9FDEAFEEBFF220438
:10004E0060DED3EB9FEA9EE99DE8C2E78CF0C2F733
:10005E0095F0400CE8CCF8E9CDF9EACEFAEBCFFBFF
:10006E0012034185D0F05804700320D5B3E8047014
:10007E00075002B2D502038092D5EC0460F7E4CCAF
:10008E00C0E0C398F8603B94186008400DD0E0FBC8
:10009E00020358E4FBFAC9FC8028E830E406E4C900
:1000AE00FBE4CAFCE830E305E4C9CACBFCE854071C
:1000BE006010F8C3E913F9EA13FAEB13FBEC13FC27
:1000CE00D8F130F52FC3E49CFCEF9BFFEE9AFEEDCA
:1000DE0099FDD0E0FBEF4E4D4C701222DB03020374
:1000EE007DEC2CFCEF33FFEE33FEED33FDED30E710
:1000FE00EB020358EF2BFFEE3AFEED39FDD0E0FB9D
:10010E0050130BBB0003020380ED13FDEE13FEEF45
:08011E0013FFEC13FC0203586F
:10012600EC4D6011E8497017ED33EC3304600DE4D3
:10013600FCFFFEFD22E933E8330470F80203761271
:10014600034158046009E4CC248150062850090272
:10015600038028400302037DC0E0EB4A7044B98067
:1001660006D0E0FB02036CEF4E701CBD8008EBFF6F
:10017600EAFEE9FD80EBE98DF0A4FEE5F002020F50
:10018600E9CDF9EAFEEBFFEF89F0A4FCE5F0CE89B4
:10019600F0A42EFFE435F0CD89F0A42DFEE435F071
:1001A6008067EF4E7005BD80D780C3EF8BF0A4AC9F
:1001B600F0EE8BF0A42CFCE435F0F8EF8AF0A42CDA
:1001C600E5F038FCE433CB8DF0A42CFCE5F03BF8ED
:1001D600EE8AF0A42CFCE5F038F8E433CF89F0A4DD
:1001E6002CFCE5F038CF3400CE89F0A42FFFE5F0E3
:1001F6003EFEE433C98DF0A42EFEE5F039CD8AF03B
:10020600A42FFFE5F03EFEE43DFD33D0E0FB5007B2
:100216000BBB000F020380EC2CFCEF33FFEE33FE2A
:06022600ED33FD02035858
:10022C00020380EC5D046005E85904700302037658
:10023C00120341580460F6EC4860F2EC7004FDFEC9
:10024C00FF22C860DB2481C85009C39860025006A5
:10025C0002037D9850CAF582E9294B4A7005AB829E
:10026C0002036C75F0007C1A7880C3EF9BEE9AED5C
:10027C0099400DC3EF9BFFEE9AFEED99FDE842F01D
:10028C00DC23ACF0D0E0FFD0E0FED0E0FDAB822070
:10029C00E7101BEB60BAEC2CFCEF33FFEE33FEEDFA
:1002AC0033FD020358E803F830E705C0F075F000A1
:1002BC00EF2FFFEE33FEED33FD40B830E7C280AADE
:1002CC0075F020800E75F010800575F0087D007EAD
:1002DC00007F003392D530D503120445EC33401027
:1002EC00EF33FFEE33FEED33FDEC33FCD5F0ED22B6
:0E02FC00E5F0247EA2D513CC92E7CDCEFF22F2
:10030A00EDD2E7CD33EC3392D524814006E4FFFEEB
:10031A00FDFC22FCE4CFCECDCC24E0501174FF804A
:10032A00EDC3CC13CCCD13CDCE13CECF13CF0470E7
:07033A00F030D5DE0204459E
:10064A003A70FA83BCAAE9E43E81E0F8BF9DE9E684
:10065A003F80000039283C1ABB9969663DA335E3FF
:10066A00BF255DE73FC90FDB418DDBCCC44936EEC0
:10067A0045C9913FC5B0F83D3F800000C317F53426
:10068A00452FFA73C60AFDDD12073904A2E192006A
:10069A001420E01590064A74041203F88026120703
:1006AA003930E102B20020E0EB8C0C8D0D8E0E8FFA
:1006BA000F90065E74041203F8A80CA90DAA0EABDB
:1006CA000F120126ED4C6007300004EC6480FC2216
:1006DA00120739C0E08C0C8D0D8E0E8F0F9006829A
:1006EA0074031203F8A80CA90DAA0EAB0F12012667
:1006FA00ECC50CFCEDC50DFDEEC50EFEEFC50FFFFA
:10070A0090067274031203F8D082A80CA90DAA0EDF
:10071A00AB0FE58230E00712022FB20080A6EFCBC2
:10072A00FFEECAFEEDC9FDECC8FC12022F8095ED62
:10073A0033EC547FCC33920024605007D0E0D0E0F1
:10074A000203767B837AF97922783E120126EDF943
:10075A0033ECF83324815011EFFBEEFA12030A123C
:10076A0002CCECB2E7FC120035ED33EC33602F24F7
:10077A0003F8C313FCED92E7FDE82481E4501FEC73
:10078A00F8EDF9EEFAEFFB12030AEF04C2E0FCF50A
:10079A00821202D6ECB2E7FC120035E58203FAEDCA
:0E07AA0033EC3360071413FCED92E7FDEA22F6
:1009CA008F0F8E0E8D0D8C0C74FFFFFEFDFCAB0F8E
:1009DA00AA0EA90DA80CC3120453602C7F807E9620
:1009EA007D187C4BAB0FAA0EA90DA80C12038B60C5
:1009FA000250157F807E967D187CCBAB0FAA0EA97C
:100A0A000DA80C12038B5009AF0FAE0EAD0DAC0C36
:100A1A0022AF0FAE0EAD0DAC0C12030A8F138E125D
:100A2A008D118C10EC1202CCC8ECC8C9EDC9CAEE03
:100A3A00CACBEFCBAF0FAE0EAD0DAC0C120031E44A
:100A4A00FBFAF9F812038B601A401874FF2513F5A4
:100A5A0013E51234FFF512E51134FFF511E51034F0
:100A6A00FFF510AF13AE12AD11AC10EC1202CC228E
:10034100E9D2E7C933E833F892D5EDD2E7CD33EC02
:0703510033FC5002B2D5227B
:10035800EC30E7100FBF000C0EBE00080DBD000406
:100368000BEB6014A2D5EB13FCED92E7FD2274FFB2
:10037800FCFDFEFF22E480F8A2D574FF13FC7D800B
:03038800E480EF1F
:10038B0074F8CC6480CCC86480C8F582046043C325
:10039B00EB9FF5F0EA9E42F0E99D42F0E89C45F0B8
:1003AB0060305018E5825FFFE582F42B5582FB50DD
:1003BB00210ABA001D09B90019088016E5825BFBFA
:1003CB00E582F42F5582FF50090EBE00050DBD00CE
:1003DB00010CC3EB9FF5F0EA9E42F0E99D42F0E879
:0D03EB009C45F06007CC4820E701B3EC22F0
:1003F800C0E0EFFBEEFAEDF9ECF8120126D0E0F5DB
:10040800F0EFFBEEFAEDF9ECF8120464A3A3A3A352
:10041800E8C0E0E9C0E0EAC0E0EBC0E0C0F01201EB
:1004280026120474A3A3A3A3120035D0F0D0E0FBD6
:0D043800D0E0FAD0E0F9D0E0F8D5F0D42201
:03000000020A7A77
:0C0A7A00787FE4F6D8FD758145020AC1C2
:0E044500C3E49FFFE49EFEE49DFDE49CFC22C8
:10045300EB9FF5F0EA9E42F0E99D42F0E89C45F0FF
:010463002276
:10046400E493FC740193FD740293FE740393FF22DE
:10047400E493F8740193F9740293FA740393FB22DE
:100A8600020484E493A3F8E493A34003F68001F2FE
:100A960008DFF48029E493A3F85407240CC8C33371
:100AA600C4540F4420C8834004F456800146F6DF40
:100AB600E4800B0102040810204080900BD3E47EF2
:100AC600019360BCA3FF543F30E509541FFEE49335
:100AD600A360010ECF54C025E060A840B8E493A3FC
:100AE600FAE493A3F8E493A3C8C582C8CAC583CA27
:100AF600F0A3C8C582C8CAC583CADFE9DEE780BEDF
:010C2A0000C9
:00000001FF
