:100361000421FEFEFEFE012A00042FF7FBFDFE0222
:10037100280000022D000001250002266000022B4A
:05038100000001330043
:1003E4005389F0438902758A06758C06D28CD2A98A
:0103F40022E6
:1003D100C2A8D2A9C2AAC2ABD2ACD2AFC2B9D2BA58
:0303E100C2BC2279
:10002E00E52A14600B14600C2402700C7F01800A08
:10003E007F0280067F0480027F087E80E4FDEF5EF3
:10004E006004D2908002C290C291D291C291EEC34E
:10005E0013FE53067F0DBD08E57421252AF8E6FF31
:10006E00852A34052AE52AC394044003E4F52A7E42
:10007E0080E4FDEF5E6004D2908002C290C291D205
:10008E0091C291EEC313FE0DBD08E8C292D292C288
:10009E00927F107E80E4FDEF5E6004D2908002C2FB
:1000AE0090C291D291C291EEC313FE53067F0DBD45
:1000BE0008E5E52B7018E52C14600B14600C240277
:1000CE00700C7FF7800A7FFB80067FFD80027F0E1B
:1000DE007E80E4FDEF5E6004D2908002C290C291F9
:1000EE00D291C291EEC313FE0DBD08E8C292D29218
:0200FE00C292AC
:0101000022DC
:03000B000202AE40
:1002AE00C0E0C0F0C083C082C0D075D000C000C016
:1002BE0001C002C003C004C005C006C007C2AF051E
:1002CE002EE52E7002052D6414452D701412002E8D
:1002DE0012000E0529E52970020528752D00752ED0
:1002EE0000D2AFD007D006D005D004D003D002D0B4
:0E02FE0001D000D0D0D082D083D0F0D0E0323A
:10030C00EFB409005046900319F8282873020334FF
:10031C0002033802033C0203400203440203480276
:10032C00034C0203500203547E1180227E7D801EFA
:10033C007E23801A7E2980167E4D80127E89800E47
:10034C007E81800A7E3D80067E0180027E097421BA
:04035C002DF8A606CC
:01036000227A
:1003A5001203E41203D11203BBE53330E0FB120262
:0603B5002F5333FE80F31C
:1003BB00759D0875BCCBE4F5BDF5BED2AD75B82403
:0603CB007F02FE02038D1B
:03002B00020101CE
:10010100C0E0C0F0C083C082C0D075D00853BCEF3E
:10011100E5A0640524FF9200E5A0640624FF920196
:10012100E5A0640724FF920243A02053A0BF53A07F
:100131007FC3E52E9410E52D648094804019E52657
:10014100648094F05011852782852683E5BDF005F2
:1001510027E5277002052685BD2575BD0075BE0002
:1001610053A0EF43A04053A07F53B0BF8525807FAC
:100171000A7E0012038D30000543A020800353A0A6
:10018100EF30010543A040800353A0BF3002054377
:10019100A080800353A07FD0D0D082D083D0F0D074
:0201A100E0324A
:10038D00E4FDFCC3ED9FEE6480F8EC6480985007AB
:07039D000DBD00010C80EC16
:0103A4002236
:0303860001100063
:10000E00E53320E013300004053480093000097414
:09001E00052534F53443330122B9
:10022F00E53414B40800507690024575F003A4C568
:10023F008325F0C5837302025F02025F02025F0231
:10024F00026A02027E02028A0202960202A2800063
:10025F00AF34EF3395E0F52B8F2C22E52C6401455D
:10026F002B703BE510700475100122E4F51022E5A8
:10027F002C6401452B702775110122E52C64014573
:10028F002B701B75110222E52C6401452B700F7525
:0F029F00110322E52C6401452B70037511042215
:030389000111005F
:030000000201A357
:0C01A300787FE4F6D8FD7581340201EA93
:1001AF000203A5E493A3F8E493A34003F68001F2BE
:1001BF0008DFF48029E493A3F85407240CC8C33351
:1001CF00C4540F4420C8834004F456800146F6DF20
:1001DF00E4800B0102040810204080900361E47E4C
:1001EF00019360BCA3FF543F30E509541FFEE49315
:1001FF00A360010ECF54C025E060A840B8E493A3DC
:10020F00FAE493A3F8E493A3C8C582C8CAC583CA06
:10021F00F0A3C8C582C8CAC583CADFE9DEE780BEBE
:01038C000070
:00000001FF
