:100243000408FEFEFEFE011100020F00000214006E
:0C02530000010C00020D6000021200010E
:1002A0005389F0438902758A06758C06D28CD2A9CF
:0102B000222B
:10028D00C2A8D2A9C2AAC2ABD2ACD2AFC2B9D2BA9D
:03029D00C2BC22BE
:10011F00E51114600B14600C2402700C7F01800A2F
:10012F007F0280067F0480027F087E80E4FDEF5E01
:10013F006004D2908002C290C291D291C291EEC35C
:10014F0013FE53067F0DBD08E574082511F8E6FF71
:10015F000511E511C394044003E4F5117E80E4FD1D
:10016F00EF5E6004D2908002C290C291D291C29190
:0E017F00EEC313FE0DBD08E8C292D292C292EA
:01018D00224F
:03000B0002018E61
:10018E00C0E0C0F0C083C082C0D075D000C000C037
:10019E0001C002C003C004C005C006C007C2AF053F
:1001AE0015E5157002051412009AE5156414451430
:1001BE00701112011F0510E5107002050F75140065
:1001CE00751500D2AFD007D006D005D004D003D01D
:1001DE0002D001D000D0D0D082D083D0F0D0E03287
:1001EE00EFB4090050469001FBF82828730202165E
:1001FE0002021A02021E02022202022602022A0231
:10020E00022E0202320202367E1180227E7D801E76
:10021E007E23801A7E2980167E4D80127E89800E66
:10022E007E81800A7E3D80067E0180027E097408F2
:04023E002DF8A606EB
:010242002299
:0B02B1001202A012028D12027880FEE3
:10027800759D0875BCCBE4F5BDF5BEC2ADF5B87F7C
:0502880002FE0202600D
:10009A00E5A0640524FF9200E5A0640624FF92010E
:1000AA00E5A0640724FF920243A02053A0BF53A0F7
:1000BA007FC3E5159410E514648094804019E50D1A
:1000CA00648094F05011850E82850D83E5BDF0059C
:1000DA000EE50E7002050D85BD0CE4F5BDF5BE53A7
:1000EA00A0EF43A04053A07F53B0BF850C807F0A86
:1000FA00FE12026030000543A020800353A0EF30B7
:10010A00010543A040800353A0BF30020443A080EE
:05011A002253A07F222A
:10026000E4FDFCC3ED9FEE6480F8EC6480985007D9
:070270000DBD00010C80EC44
:010277002264
:0300000002000EED
:0C000E00787FE4F6D8FD758120020055D3
:10001A000202B1E493A3F8E493A34003F68001F249
:10002A0008DFF48029E493A3F85407240CC8C333E7
:10003A00C4540F4420C8834004F456800146F6DFB6
:10004A00E4800B0102040810204080900243E47E01
:10005A00019360BCA3FF543F30E509541FFEE493AB
:10006A00A360010ECF54C025E060A840B8E493A372
:10007A00FAE493A3F8E493A3C8C582C8CAC583CA9D
:10008A00F0A3C8C582C8CAC583CADFE9DEE780BE55
:01025F00009E
:00000001FF
