:100DB7000243000002210000024100000423111138
:100DC7001111013E000447F7FBFDFE023C00000243
:100DD700450000012900013700014000022C0000F6
:100DE700022A0000023110000233110002351200FE
:100DF70002271300014B00013F01043811111111A3
:0F109D005389F0438902758A06758C06D28C221E
:0F10AC0053890F438920758B06758D06D28E22CE
:0F10BB00D2AFD2A9D2ABD2ADD2B9C2BBC2BD2285
:100D1300E53E14600E14600F146010240370107FFE
:100D230001800E7F02800A7F0480067F0880027F95
:100D3300107E80E4FDEF5E6004D2908002C290C218
:100D430091D291C291EEC313FE53067F0DBD08E508
:100D5300E53ED3940350097423253EF8E6FF801B38
:100D6300E53F24FE600B14600C2402700C7FF780B7
:100D73000A7FFB80067FFD80027FFEE53ED394035E
:100D83005003853E4C053EE53ED394044003E4F511
:100D93003E7E80E4FDEF5E6004D2908002C290C28A
:100DA30091D291C291EEC313FE0DBD08E8C292D257
:030DB30092C29257
:010DB600221A
:03000B00020ECF13
:100ECF00C0E0C0F0C083C082C0D075D000C000C0E9
:100EDF0001C002C003C004C005C006C007C2AF05F1
:100EEF0046E54670020545121009E546640345457F
:100EFF006010E546640645456008E54664094545CA
:100F0F0070031207CDE546640A4545700C120D13A8
:100F1F0012105D754500754600D2AFD007D006D0D0
:100F2F0005D004D003D002D001D000D0D0D082D0D1
:060F3F0083D0F0D0E03287
:03001B0002090CCB
:10090C00C0E0C0F0C083C082C0D075D000C000C0B1
:10091C0001C002C003C004C005C006C007C2AF05B9
:10092C003DE53D7002053C120F45120A27E53F6478
:10093C0001704F852C2A852D2BD3E52D9400E52CA9
:10094C009404501DE52924C025E0852D82852C8337
:10095C00F0754100852942052DE52D7002052C808E
:10096C0021752C00752D00E52924C025E0852D82EC
:10097C00852C83F0754100852942052DE52D7002EB
:10098C00052CE53F64027039D3E52B9400E52A94DD
:10099C00045015852B82852A83E0C313F540052B63
:1009AC00E52B7002052A8019752A00752B00852B02
:1009BC0082852A83E0C313F540052BE52B700205D5
:1009CC002AE53D64F47004E53C64016031E53DB416
:1009DC00D010E53CB4070B853924853A25853B2698
:1009EC00801CE53DB4A017E53CB40F12752411E54D
:1009FC003A54FEF525853B26753C00753D00D2AF7B
:100A0C00D007D006D005D004D003D002D001D0003E
:0B0A1C00D0D0D082D083D0F0D0E032E8
:1007CD00E53F6401600302090BE56524FE606A14D0
:1007DD0070030208881470030208CA240360030220
:1007ED00090BD3E53294FFE53194105020E5636495
:1007FD0001600F853282853183E08563F0A4F56158
:10080D00801E853282853183E0F56180137531104C
:10081D00753200853282853183E08563F0A4F56100
:10082D00E5322401FFE43531FEAD62ED3395E0FC98
:10083D00EF2DF532EE3CF53122AF62EF3395E0FE50
:10084D00E5342FFFE5333EFED3EF94F3EE941150D4
:10085D00128F828E83E02563F5610534E534701ABD
:10086D00053322753311753400853482853383E069
:10087D00F5610534E5347002053322AF62EF33952F
:10088D00E0FEE5362FFFE5353EFED3EF94F3EE9413
:10089D001250128F828E83E02563F5610536E536A1
:1008AD00705C0535227535127536008536828535B5
:1008BD0083E0F5610536E5367044053522AF62EF0C
:1008CD003395E0FEE5282FFFE5273EFED3EF947923
:1008DD00EE941350128F828E83E02563F561052807
:1008ED00E528701A0527227527137528008528829B
:0F08FD00852783E0F5610528E52870020527228D
:100FB400EFB409005046900FC1F8282873020FDCE3
:100FC400020FE0020FE4020FE8020FEC020FF0023E
:100FD4000FF4020FF8020FFC7E1180227E7D801E2A
:100FE4007E23801A7E2980167E4D80127E89800E93
:100FF4007E81800A7E3D80067E0180027E097438EF
:041004002DF8A60617
:0110080022C5
:100AF20043970112109D1210AC1210BB12000E127D
:100B0200067DE53F24FE6009146008240270078018
:100B1200028000852937E54B30E006120BB0534BBB
:0C0B2200FEC3E53D94D0E53C9407504034
:100B2E00AE51AF527C007D641204458F10AE51AFB2
:100B3E00527C007D641204458D117D01AF10120FA1
:100B4E00B4E51175F00A84F510E51175F00A848587
:0E0B5E00F0110DAF10120FB40DAF11120FB445
:100B6C008096AF5DAE5CAD5BAC5A120C6312030A9F
:100B7C008F2E7D02120FB4E4FFFE7D207C41AB5D15
:100B8C00AA5CA95BA85A120126120C6312030A8FE5
:100B9C002FE52F75F00A8485F0307D03AF30120FEE
:040BAC00B4020B0480
:040E0700021E0000C7
:0D000E00759D0875BC837F027E00021042C4
:1010090075BC8BE53F24FE601414601E2402702811
:1010190012108A751E20751F00AD61801812108A82
:10102900751E20751F00AD40800B12108A751E2099
:09103900751F00E4FD1210922263
:0C108A00751E40751F00AD37AF1FAE1E75
:071096008F828E83EDF02232
:03002B000210764A
:10107600C0E0C0D075BC83E5BDC3132440F529D0BC
:04108600D0D0E032B4
:10104200EF1FAA0670011E4A60107C037DE8ED1DA9
:0A105200AA0470011C4A60E880F453
:01105C002271
:0F0E0B00016500016100016400016200016301E3
:10067D00E4F512F513F514F515F514F515751210BD
:10068D00F513D3E51394FFE5129410505CAC14AD43
:10069D0015E41202D17BC37AF57948784012012610
:1006AD00E4FBFAF9784312022F12056DE4FBFA7997
:1006BD0080783F120035E4FBFA794078411201262B
:1006CD00120C63E4FBFAF9784212003512030A8525
:1006DD001382851283EFF00513E5137002051205E1
:1006ED0015E515709D05148099E4F514F515751231
:1006FD0011F513D3E5139479E5129411501DE515F9
:10070D002414851382851283F00513E513700205F9
:10071D00120515E51570DC051480D8E4F514F515F2
:10072D0075121175137AD3E51394F3E512941150E4
:10073D001EC3748D9515851382851283F00513E5FF
:10074D0013700205120515E51570DB051480D775BC
:10075D0012127513008513828512837496F005139A
:10076D00E51370020512B47AECE512B412E77512B6
:10077D001275137A851382851283741EF00513E5A5
:10078D001370020512B4F4ECE512B412E7E4F5149B
:10079D00F515751213F513D3E5139479E51294132A
:1007AD00501DE5152414851382851283F00513E57C
:0F07BD0013700205120515E51570DC051480D8C0
:0107CC00220A
:10105D00E54B20E01330B504054C800930B409741C
:09106D0005254CF54C434B012212
:100BB000E54C14B408004003020C62900BC975F0B8
:100BC00003A4C58325F0C58373020BE3020BE30284
:100BD0000BE3020BE7020BFF020C1A020C2E020CB5
:100BE0004B8000854C3F22E53FB40111E564700560
:100BF0007564018035E4F564F562756301802BE569
:100C00003FB40114E5647005756501800BC3E562AE
:100C100064809481400215628010E53FB4010BE5C9
:100C2000647005756502800205627F14802FE53FC0
:100C3000B40114E5647005756503800BC3E5636456
:100C4000809482400215637F1E8012E53FB4010B41
:100C5000E5647005756504800205637F1E7E0012E1
:030C60001042221D
:100E1A0002510000045A0000000001550001500070
:100E2A00014F8001608002530000024D0000025E03
:080E3A00000004560000000056
:100F4500852955E555D3954F400385554FE555C33F
:100F550095605003855560D3E52D9400E52C64809C
:100F65009484404AAC60E41202D6E4FBFA79A07896
:100F750040120126C004C005C006C007AC4FE412EC
:100F850002D6E4FBFA79A07840120126D003D002FC
:100F9500D001D000120031E4FBFAF9784312022F98
:0F0FA5008F5D8E5C8D5B8C5A756080754F8022DE
:100A2700852955E555D394804066E550D394805089
:100A37005F852C4D852D4EE55F455E604DC3E55FB7
:100A4700954EFDE55E954DFC1202D112001EC004C5
:100A5700C005C006C007AC53AD54EC1202D1D00399
:100A6700D002D001D00012003512030A8E538F54E2
:100A7700AF59AE58AD57AC56E4FBFA7980783F12C0
:100A870000358F598E588D578C56854D5E854E5F34
:100A9700D3E52D9400E52C64809484404AAC53AD93
:100AA70054EC1202D1AB59AA58A957A85612022FD3
:100AB700A804A905AA06AB07E4FFFE7DFA7C441249
:100AC700022F120C6312030A8E518F52E4F553F56D
:100AD70054F55EF55FF54DF54EF559F558F557F5B3
:0B0AE7005675508175558185555022D1
:10002E00020376E86480F8E933E83360110460F087
:10003E00ED33EC337009E8FCE9FDEAFEEBFF220438
:10004E0060DED3EB9FEA9EE99DE8C2E78CF0C2F733
:10005E0095F0400CE8CCF8E9CDF9EACEFAEBCFFBFF
:10006E0012034185D0F05804700320D5B3E8047014
:10007E00075002B2D502038092D5EC0460F7E4CCAF
:10008E00C0E0C398F8603B94186008400DD0E0FBC8
:10009E00020358E4FBFAC9FC8028E830E406E4C900
:1000AE00FBE4CAFCE830E305E4C9CACBFCE854071C
:1000BE006010F8C3E913F9EA13FAEB13FBEC13FC27
:1000CE00D8F130F52FC3E49CFCEF9BFFEE9AFEEDCA
:1000DE0099FDD0E0FBEF4E4D4C701222DB03020374
:1000EE007DEC2CFCEF33FFEE33FEED33FDED30E710
:1000FE00EB020358EF2BFFEE3AFEED39FDD0E0FB9D
:10010E0050130BBB0003020380ED13FDEE13FEEF45
:08011E0013FFEC13FC0203586F
:10012600EC4D6011E8497017ED33EC3304600DE4D3
:10013600FCFFFEFD22E933E8330470F80203761271
:10014600034158046009E4CC248150062850090272
:10015600038028400302037DC0E0EB4A7044B98067
:1001660006D0E0FB02036CEF4E701CBD8008EBFF6F
:10017600EAFEE9FD80EBE98DF0A4FEE5F002020F50
:10018600E9CDF9EAFEEBFFEF89F0A4FCE5F0CE89B4
:10019600F0A42EFFE435F0CD89F0A42DFEE435F071
:1001A6008067EF4E7005BD80D780C3EF8BF0A4AC9F
:1001B600F0EE8BF0A42CFCE435F0F8EF8AF0A42CDA
:1001C600E5F038FCE433CB8DF0A42CFCE5F03BF8ED
:1001D600EE8AF0A42CFCE5F038F8E433CF89F0A4DD
:1001E6002CFCE5F038CF3400CE89F0A42FFFE5F0E3
:1001F6003EFEE433C98DF0A42EFEE5F039CD8AF03B
:10020600A42FFFE5F03EFEE43DFD33D0E0FB5007B2
:100216000BBB000F020380EC2CFCEF33FFEE33FE2A
:06022600ED33FD02035858
:10022C00020380EC5D046005E85904700302037658
:10023C00120341580460F6EC4860F2EC7004FDFEC9
:10024C00FF22C860DB2481C85009C39860025006A5
:10025C0002037D9850CAF582E9294B4A7005AB829E
:10026C0002036C75F0007C1A7880C3EF9BEE9AED5C
:10027C0099400DC3EF9BFFEE9AFEED99FDE842F01D
:10028C00DC23ACF0D0E0FFD0E0FED0E0FDAB822070
:10029C00E7101BEB60BAEC2CFCEF33FFEE33FEEDFA
:1002AC0033FD020358E803F830E705C0F075F000A1
:1002BC00EF2FFFEE33FEED33FD40B830E7C280AADE
:1002CC0075F020800E75F010800575F0087D007EAD
:1002DC00007F003392D530D50312047BEC334010F1
:1002EC00EF33FFEE33FEED33FDEC33FCD5F0ED22B6
:0E02FC00E5F0247EA2D513CC92E7CDCEFF22F2
:10030A00EDD2E7CD33EC3392D524814006E4FFFEEB
:10031A00FDFC22FCE4CFCECDCC24E0501174FF804A
:10032A00EDC3CC13CCCD13CDCE13CECF13CF0470E7
:07033A00F030D5DE02047B68
:0D001E00ED33EC3360065004EC6480FC22EE
:10050F003A70FA83BCAAE9E43E81E0F8BF9DE9E6C0
:10051F003F80000039283C1ABB9969663DA335E33B
:10052F00BF255DE73FC90FDB418DDBCCC44936EEFC
:10053F0045C9913FC5B0F83D3F800000C317F53462
:10054F00452FFA73C60AFDDD1205FE04A2E19200E3
:10055F001420E01590050F74041203F8802612057D
:10056F00FE30E102B20020E0EB8C168D178E188F53
:10057F001990052374041203F8A816A917AA18AB2B
:10058F0019120126ED4C6007300004EC6480FC2248
:10059F001205FEC0E08C168D178E188F1990054727
:1005AF0074031203F8A816A917AA18AB191201267B
:1005BF00ECC516FCEDC517FDEEC518FEEFC519FF0E
:1005CF0090053774031203F8D082A816A917AA183A
:1005DF00AB19E58230E00712022FB20080A6EFCBF5
:1005EF00FFEECAFEEDC9FDECC8FC12022F8095ED9F
:1005FF0033EC547FCC33920024605007D0E0D0E02E
:10060F000203767B837AF97922783E120126EDF97F
:10061F0033ECF83324815011EFFBEEFA12030A1278
:10062F0002CCECB2E7FC120035ED33EC33602F2433
:10063F0003F8C313FCED92E7FDE82481E4501FECAF
:10064F00F8EDF9EEFAEFFB12030AEF04C2E0FCF546
:10065F00821202D6ECB2E7FC120035E58203FAED06
:0E066F0033EC3360071413FCED92E7FDEA2232
:100C63008F198E188D178C1674FFFFFEFDFCAB19C0
:100C7300AA18A917A816C3120489602C7F807E9630
:100C83007D187C4BAB19AA18A917A81612038B6001
:100C93000250157F807E967D187CCBAB19AA18A9CC
:100CA30017A81612038B5009AF19AE18AD17AC165F
:100CB30022AF19AE18AD17AC1612030A8F1D8E1C86
:100CC3008D1B8C1AEC1202CCC8ECC8C9EDC9CAEE54
:100CD300CACBEFCBAF19AE18AD17AC16120031E487
:100CE300FBFAF9F812038B601A401874FF251DF5FF
:100CF3001DE51C34FFF51CE51B34FFF51BE51A3419
:100D0300FFF51AAF1DAE1CAD1BAC1AEC1202CC22C0
:10034100E9D2E7C933E833F892D5EDD2E7CD33EC02
:0703510033FC5002B2D5227B
:10035800EC30E7100FBF000C0EBE00080DBD000406
:100368000BEB6014A2D5EB13FCED92E7FD2274FFB2
:10037800FCFDFEFF22E480F8A2D574FF13FC7D800B
:03038800E480EF1F
:10038B0074F8CC6480CCC86480C8F582046043C325
:10039B00EB9FF5F0EA9E42F0E99D42F0E89C45F0B8
:1003AB0060305018E5825FFFE582F42B5582FB50DD
:1003BB00210ABA001D09B90019088016E5825BFBFA
:1003CB00E582F42F5582FF50090EBE00050DBD00CE
:1003DB00010CC3EB9FF5F0EA9E42F0E99D42F0E879
:0D03EB009C45F06007CC4820E701B3EC22F0
:1003F800C0E0EFFBEEFAEDF9ECF8120126D0E0F5DB
:10040800F0EFFBEEFAEDF9ECF812049AA3A3A3A31C
:10041800E8C0E0E9C0E0EAC0E0EBC0E0C0F01201EB
:10042800261204AAA3A3A3A3120035D0F0D0E0FBA0
:0D043800D0E0FAD0E0F9D0E0F8D5F0D42201
:03000000020E43AA
:0C0E4300787FE4F6D8FD758165020E8A08
:10044500C2D5EC30E709B2D5E4C39DFDE49CFCEED2
:1004550030E715B2D5E4C39FFFE49EFE1204BAC38C
:10046500E49DFDE49CFC80031204BA30D507C3E487
:060475009FFFE49EFE2241
:0E047B00C3E49FFFE49EFEE49DFDE49CFC2292
:10048900EB9FF5F0EA9E42F0E99D42F0E89C45F0C9
:010499002240
:10049A00E493FC740193FD740293FE740393FF22A8
:1004AA00E493F8740193F9740293FA740393FB22A8
:100E4F00020AF2E493A3F8E493A34003F68001F2BD
:100E5F0008DFF48029E493A3F85407240CC8C333A4
:100E6F00C4540F4420C8834004F456800146F6DF73
:100E7F00E4800B0102040810204080900DB7E47E3F
:100E8F00019360BCA3FF543F30E509541FFEE49368
:100E9F00A360010ECF54C025E060A840B8E493A32F
:100EAF00FAE493A3F8E493A3C8C582C8CAC583CA5A
:100EBF00F0A3C8C582C8CAC583CADFE9DEE780BE12
:010E420000AF
:1004BA00BC000BBE0029EF8DF084FFADF022E4CC26
:1004CA00F875F008EF2FFFEE33FEEC33FCEE9DECEF
:1004DA00984005FCEE9DFE0FD5F0E9E4CEFD22ED35
:1004EA00F8F5F0EE8420D21CFEADF075F008EF2F7F
:1004FA00FFED33FD4007985006D5F0F222C398FD70
:05050A000FD5F0EA220C
:00000001FF
