:10022100021800000208000002160000040AFEFE87
:10023100FEFE01140002120000021A0000010E006D
:0A024100011100020F000001150179
:0F027E005389F0438902758A06758C06D28C224B
:0B029A00D2AFD2A9D2ADD2B9C2BD22B2
:1000BA00E51414600B14600C2402700C7F01800A92
:1000CA007F0280067F0480027F087E80E4FDEF5E67
:1000DA006004D2908002C290C291D291C291EEC3C2
:1000EA0013FE53067F0DBD08E5740A2514F8E6FFD2
:1000FA000514E514C394044003E4F5147E80E4FD7A
:10010A00EF5E6004D2908002C290C291D291C291F5
:0E011A00EEC313FE0DBD08E8C292D292C2924F
:0101280022B4
:03000B00020129C6
:10012900C0E0C0F0C083C082C0D075D000C000C09C
:1001390001C002C003C004C005C006C007C2AF05A4
:100149001BE51B7002051A120000E51B6414451A11
:1001590070111200BA0513E51370020512751A0021
:10016900751B00D2AFD007D006D005D004D003D07C
:1001790002D001D000D0D0D082D083D0F0D0E032EC
:10018900EFB409005046900196F82828730201B18E
:100199000201B50201B90201BD0201C10201C50294
:1001A90001C90201CD0201D17E1180227E7D801E0E
:1001B9007E23801A7E2980167E4D80127E89800ECC
:1001C9007E81800A7E3D80067E0180027E09740A56
:0401D9002DF8A60651
:0101DD0022FF
:1001DE0012027E12029A12028DE50E65177002E56A
:1001EE001660F6D3E51094FFE50F940F50108510AE
:1001FE0082850F83E50EF0751600F51780DBE4F5AA
:10020E000FF510851082850F83E50EF0751600F53B
:03021E001780C680
:04024B00021C000091
:0D028D00759D0875BC837F027E0002000E87
:10026E0075BC8B751C20751D00AF1DAE1C020003E6
:080003008F828E83E511F022CB
:03002B000202507E
:10025000C0E0C0D075BC8385BD0EE51524FE6003EB
:0E026000047003850E1175BD00D0D0D0E032C1
:10000E00EF1FAA0670011E4A60107C137D88ED1D3D
:0A001E00AA0470011C4A60E880F497
:0100280022B5
:0300000002002ECD
:0C002E00787FE4F6D8FD75811D02007596
:10003A000201DEE493A3F8E493A34003F68001F2FD
:10004A0008DFF48029E493A3F85407240CC8C333C7
:10005A00C4540F4420C8834004F456800146F6DF96
:10006A00E4800B0102040810204080900221E47E03
:10007A00019360BCA3FF543F30E509541FFEE4938B
:10008A00A360010ECF54C025E060A840B8E493A352
:10009A00FAE493A3F8E493A3C8C582C8CAC583CA7D
:1000AA00F0A3C8C582C8CAC583CADFE9DEE780BE35
:01024F0000AE
:00000001FF
